{
  "_format": "hh-sol-artifact-1",
  "contractName": "LotteryContract",
  "sourceName": "contracts/lottery.sol",
  "abi": [
    {
      "inputs": [],
      "stateMutability": "nonpayable",
      "type": "constructor"
    },
    {
      "inputs": [
        {
          "internalType": "uint256",
          "name": "lotteryId",
          "type": "uint256"
        }
      ],
      "name": "BuyTicket",
      "outputs": [],
      "stateMutability": "payable",
      "type": "function"
    },
    {
      "inputs": [
        {
          "internalType": "string",
          "name": "name",
          "type": "string"
        },
        {
          "internalType": "uint256",
          "name": "startDate",
          "type": "uint256"
        }
      ],
      "name": "CreateLottery",
      "outputs": [],
      "stateMutability": "nonpayable",
      "type": "function"
    },
    {
      "inputs": [
        {
          "internalType": "uint256",
          "name": "lotteryId",
          "type": "uint256"
        }
      ],
      "name": "FinishLottery",
      "outputs": [],
      "stateMutability": "nonpayable",
      "type": "function"
    },
    {
      "inputs": [],
      "name": "m_commision",
      "outputs": [
        {
          "internalType": "uint256",
          "name": "",
          "type": "uint256"
        }
      ],
      "stateMutability": "view",
      "type": "function"
    },
    {
      "inputs": [
        {
          "internalType": "uint256",
          "name": "",
          "type": "uint256"
        }
      ],
      "name": "m_lotteries",
      "outputs": [
        {
          "internalType": "string",
          "name": "name",
          "type": "string"
        },
        {
          "internalType": "uint256",
          "name": "startDate",
          "type": "uint256"
        },
        {
          "internalType": "uint256",
          "name": "totalPrize",
          "type": "uint256"
        },
        {
          "internalType": "bool",
          "name": "finalized",
          "type": "bool"
        }
      ],
      "stateMutability": "view",
      "type": "function"
    },
    {
      "inputs": [],
      "name": "m_lotteryId",
      "outputs": [
        {
          "internalType": "uint256",
          "name": "",
          "type": "uint256"
        }
      ],
      "stateMutability": "view",
      "type": "function"
    },
    {
      "inputs": [],
      "name": "m_owner",
      "outputs": [
        {
          "internalType": "address",
          "name": "",
          "type": "address"
        }
      ],
      "stateMutability": "view",
      "type": "function"
    },
    {
      "inputs": [],
      "name": "m_ticketPrice",
      "outputs": [
        {
          "internalType": "uint256",
          "name": "",
          "type": "uint256"
        }
      ],
      "stateMutability": "view",
      "type": "function"
    },
    {
      "inputs": [
        {
          "internalType": "uint256",
          "name": "",
          "type": "uint256"
        },
        {
          "internalType": "uint256",
          "name": "",
          "type": "uint256"
        }
      ],
      "name": "m_tickets",
      "outputs": [
        {
          "internalType": "address",
          "name": "",
          "type": "address"
        }
      ],
      "stateMutability": "view",
      "type": "function"
    }
  ],
  "bytecode": "0x60806040526000600155662386f26fc10000600255600560035534801561002557600080fd5b50336000806101000a81548173ffffffffffffffffffffffffffffffffffffffff021916908373ffffffffffffffffffffffffffffffffffffffff160217905550611633806100756000396000f3fe6080604052600436106100865760003560e01c80639fea3c1e116100595780639fea3c1e14610138578063a79a216e14610163578063aae024361461018c578063d6ca025f146101b7578063deff41c1146101f757610086565b80634ff5a8a81461008b57806376acb5e8146100c85780637907e16e146100e4578063939c4b101461010d575b600080fd5b34801561009757600080fd5b506100b260048036038101906100ad9190610ae5565b610222565b6040516100bf9190610b66565b60405180910390f35b6100e260048036038101906100dd9190610b81565b610270565b005b3480156100f057600080fd5b5061010b60048036038101906101069190610cf4565b610402565b005b34801561011957600080fd5b50610122610533565b60405161012f9190610d5f565b60405180910390f35b34801561014457600080fd5b5061014d610539565b60405161015a9190610d5f565b60405180910390f35b34801561016f57600080fd5b5061018a60048036038101906101859190610b81565b61053f565b005b34801561019857600080fd5b506101a1610952565b6040516101ae9190610d5f565b60405180910390f35b3480156101c357600080fd5b506101de60048036038101906101d99190610b81565b610958565b6040516101ee9493929190610e14565b60405180910390f35b34801561020357600080fd5b5061020c610a1d565b6040516102199190610b66565b60405180910390f35b6005602052816000526040600020818154811061023e57600080fd5b906000526020600020016000915091509054906101000a900473ffffffffffffffffffffffffffffffffffffffff1681565b60015481106102b4576040517f08c379a00000000000000000000000000000000000000000000000000000000081526004016102ab90610eac565b60405180910390fd5b6004600082815260200190815260200160002060030160009054906101000a900460ff1615610318576040517f08c379a000000000000000000000000000000000000000000000000000000000815260040161030f90610f3e565b60405180910390fd5b600254341461035c576040517f08c379a000000000000000000000000000000000000000000000000000000000815260040161035390610fd0565b60405180910390fd5b60056000828152602001908152602001600020339080600181540180825580915050600190039060005260206000200160009091909190916101000a81548173ffffffffffffffffffffffffffffffffffffffff021916908373ffffffffffffffffffffffffffffffffffffffff1602179055506002546004600083815260200190815260200160002060020160008282546103f8919061101f565b9250508190555050565b60008054906101000a900473ffffffffffffffffffffffffffffffffffffffff1673ffffffffffffffffffffffffffffffffffffffff163373ffffffffffffffffffffffffffffffffffffffff1614610490576040517f08c379a0000000000000000000000000000000000000000000000000000000008152600401610487906110c5565b60405180910390fd5b6040518060800160405280838152602001828152602001600081526020016000151581525060046000600154815260200190815260200160002060008201518160000190816104df91906112f1565b50602082015181600101556040820151816002015560608201518160030160006101000a81548160ff0219169083151502179055509050506001600081548092919061052a906113c3565b91905055505050565b60035481565b60025481565b60008054906101000a900473ffffffffffffffffffffffffffffffffffffffff1673ffffffffffffffffffffffffffffffffffffffff163373ffffffffffffffffffffffffffffffffffffffff16146105cd576040517f08c379a00000000000000000000000000000000000000000000000000000000081526004016105c4906110c5565b60405180910390fd5b6001548110610611576040517f08c379a000000000000000000000000000000000000000000000000000000000815260040161060890610eac565b60405180910390fd5b6004600082815260200190815260200160002060030160009054906101000a900460ff1615610675576040517f08c379a000000000000000000000000000000000000000000000000000000000815260040161066c90610f3e565b60405180910390fd5b60016005600083815260200190815260200160002080549050116106ce576040517f08c379a00000000000000000000000000000000000000000000000000000000081526004016106c59061147d565b60405180910390fd5b60016004600083815260200190815260200160002060030160006101000a81548160ff0219169083151502179055506000600460008381526020019081526020016000206002015490506000600a600883610729919061149d565b610733919061150e565b905060006064600f84610746919061149d565b610750919061150e565b90506000606460035485610764919061149d565b61076e919061150e565b905060008054906101000a900473ffffffffffffffffffffffffffffffffffffffff1673ffffffffffffffffffffffffffffffffffffffff166108fc829081150290604051600060405180830381858888f193505050501580156107d6573d6000803e3d6000fd5b5060006107f86005600088815260200190815260200160002080549050610a41565b9050600061081b6005600089815260200190815260200160002080549050610a41565b90506005600088815260200190815260200160002082815481106108425761084161153f565b5b9060005260206000200160009054906101000a900473ffffffffffffffffffffffffffffffffffffffff1673ffffffffffffffffffffffffffffffffffffffff166108fc869081150290604051600060405180830381858888f193505050501580156108b2573d6000803e3d6000fd5b506005600088815260200190815260200160002081815481106108d8576108d761153f565b5b9060005260206000200160009054906101000a900473ffffffffffffffffffffffffffffffffffffffff1673ffffffffffffffffffffffffffffffffffffffff166108fc859081150290604051600060405180830381858888f19350505050158015610948573d6000803e3d6000fd5b5050505050505050565b60015481565b600460205280600052604060002060009150905080600001805461097b90611114565b80601f01602080910402602001604051908101604052809291908181526020018280546109a790611114565b80156109f45780601f106109c9576101008083540402835291602001916109f4565b820191906000526020600020905b8154815290600101906020018083116109d757829003601f168201915b5050505050908060010154908060020154908060030160009054906101000a900460ff16905084565b60008054906101000a900473ffffffffffffffffffffffffffffffffffffffff1681565b600081424860056000600154815260200190815260200160002080549050604051602001610a719392919061158f565b6040516020818303038152906040528051906020012060001c610a9491906115cc565b9050919050565b6000604051905090565b600080fd5b600080fd5b6000819050919050565b610ac281610aaf565b8114610acd57600080fd5b50565b600081359050610adf81610ab9565b92915050565b60008060408385031215610afc57610afb610aa5565b5b6000610b0a85828601610ad0565b9250506020610b1b85828601610ad0565b9150509250929050565b600073ffffffffffffffffffffffffffffffffffffffff82169050919050565b6000610b5082610b25565b9050919050565b610b6081610b45565b82525050565b6000602082019050610b7b6000830184610b57565b92915050565b600060208284031215610b9757610b96610aa5565b5b6000610ba584828501610ad0565b91505092915050565b600080fd5b600080fd5b6000601f19601f8301169050919050565b7f4e487b7100000000000000000000000000000000000000000000000000000000600052604160045260246000fd5b610c0182610bb8565b810181811067ffffffffffffffff82111715610c2057610c1f610bc9565b5b80604052505050565b6000610c33610a9b565b9050610c3f8282610bf8565b919050565b600067ffffffffffffffff821115610c5f57610c5e610bc9565b5b610c6882610bb8565b9050602081019050919050565b82818337600083830152505050565b6000610c97610c9284610c44565b610c29565b905082815260208101848484011115610cb357610cb2610bb3565b5b610cbe848285610c75565b509392505050565b600082601f830112610cdb57610cda610bae565b5b8135610ceb848260208601610c84565b91505092915050565b60008060408385031215610d0b57610d0a610aa5565b5b600083013567ffffffffffffffff811115610d2957610d28610aaa565b5b610d3585828601610cc6565b9250506020610d4685828601610ad0565b9150509250929050565b610d5981610aaf565b82525050565b6000602082019050610d746000830184610d50565b92915050565b600081519050919050565b600082825260208201905092915050565b60005b83811015610db4578082015181840152602081019050610d99565b60008484015250505050565b6000610dcb82610d7a565b610dd58185610d85565b9350610de5818560208601610d96565b610dee81610bb8565b840191505092915050565b60008115159050919050565b610e0e81610df9565b82525050565b60006080820190508181036000830152610e2e8187610dc0565b9050610e3d6020830186610d50565b610e4a6040830185610d50565b610e576060830184610e05565b95945050505050565b7f546865206c6f747465727920646f6573206e6f74206578697374210000000000600082015250565b6000610e96601b83610d85565b9150610ea182610e60565b602082019050919050565b60006020820190508181036000830152610ec581610e89565b9050919050565b7f54686973206c6f747465727920697320616c72656164792066696e697368656460008201527f2100000000000000000000000000000000000000000000000000000000000000602082015250565b6000610f28602183610d85565b9150610f3382610ecc565b604082019050919050565b60006020820190508181036000830152610f5781610f1b565b9050919050565b7f596f75206e65656420746f207061792065786163746c7920666f72206f6e652060008201527f7469636b65742100000000000000000000000000000000000000000000000000602082015250565b6000610fba602783610d85565b9150610fc582610f5e565b604082019050919050565b60006020820190508181036000830152610fe981610fad565b9050919050565b7f4e487b7100000000000000000000000000000000000000000000000000000000600052601160045260246000fd5b600061102a82610aaf565b915061103583610aaf565b925082820190508082111561104d5761104c610ff0565b5b92915050565b7f4f6e6c7920746865206f776e6572206f662074686520636f6e7472616374206360008201527f616e20646f20746869732e000000000000000000000000000000000000000000602082015250565b60006110af602b83610d85565b91506110ba82611053565b604082019050919050565b600060208201905081810360008301526110de816110a2565b9050919050565b7f4e487b7100000000000000000000000000000000000000000000000000000000600052602260045260246000fd5b6000600282049050600182168061112c57607f821691505b60208210810361113f5761113e6110e5565b5b50919050565b60008190508160005260206000209050919050565b60006020601f8301049050919050565b600082821b905092915050565b6000600883026111a77fffffffffffffffffffffffffffffffffffffffffffffffffffffffffffffffff8261116a565b6111b1868361116a565b95508019841693508086168417925050509392505050565b6000819050919050565b60006111ee6111e96111e484610aaf565b6111c9565b610aaf565b9050919050565b6000819050919050565b611208836111d3565b61121c611214826111f5565b848454611177565b825550505050565b600090565b611231611224565b61123c8184846111ff565b505050565b5b8181101561126057611255600082611229565b600181019050611242565b5050565b601f8211156112a55761127681611145565b61127f8461115a565b8101602085101561128e578190505b6112a261129a8561115a565b830182611241565b50505b505050565b600082821c905092915050565b60006112c8600019846008026112aa565b1980831691505092915050565b60006112e183836112b7565b9150826002028217905092915050565b6112fa82610d7a565b67ffffffffffffffff81111561131357611312610bc9565b5b61131d8254611114565b611328828285611264565b600060209050601f83116001811461135b5760008415611349578287015190505b61135385826112d5565b8655506113bb565b601f19841661136986611145565b60005b828110156113915784890151825560018201915060208501945060208101905061136c565b868310156113ae57848901516113aa601f8916826112b7565b8355505b6001600288020188555050505b505050505050565b60006113ce82610aaf565b91507fffffffffffffffffffffffffffffffffffffffffffffffffffffffffffffffff8203611400576113ff610ff0565b5b600182019050919050565b7f54686973206c6f747465727920646f65736e2774206861766520656e6f75676860008201527f207061727469636970616e747321000000000000000000000000000000000000602082015250565b6000611467602e83610d85565b91506114728261140b565b604082019050919050565b600060208201905081810360008301526114968161145a565b9050919050565b60006114a882610aaf565b91506114b383610aaf565b92508282026114c181610aaf565b915082820484148315176114d8576114d7610ff0565b5b5092915050565b7f4e487b7100000000000000000000000000000000000000000000000000000000600052601260045260246000fd5b600061151982610aaf565b915061152483610aaf565b925082611534576115336114df565b5b828204905092915050565b7f4e487b7100000000000000000000000000000000000000000000000000000000600052603260045260246000fd5b6000819050919050565b61158961158482610aaf565b61156e565b82525050565b600061159b8286611578565b6020820191506115ab8285611578565b6020820191506115bb8284611578565b602082019150819050949350505050565b60006115d782610aaf565b91506115e283610aaf565b9250826115f2576115f16114df565b5b82820690509291505056fea2646970667358221220544dddff3329face670811de3501824a8e248da7871e53862a0591a85114424064736f6c63430008120033",
  "linkReferences": {},
  "deployedLinkReferences": {}
}